{
  "contractName": "Dtsp",
  "abi": [
    {
      "inputs": [],
      "stateMutability": "nonpayable",
      "type": "constructor"
    },
    {
      "anonymous": false,
      "inputs": [
        {
          "indexed": true,
          "internalType": "string",
          "name": "sha_256",
          "type": "string"
        },
        {
          "indexed": false,
          "internalType": "string",
          "name": "md5",
          "type": "string"
        },
        {
          "indexed": false,
          "internalType": "string",
          "name": "flagged_malicious",
          "type": "string"
        },
        {
          "indexed": false,
          "internalType": "string",
          "name": "file_type",
          "type": "string"
        },
        {
          "indexed": false,
          "internalType": "uint64",
          "name": "size",
          "type": "uint64"
        },
        {
          "indexed": false,
          "internalType": "string",
          "name": "last_analysis",
          "type": "string"
        }
      ],
      "name": "AnalysisStored",
      "type": "event"
    },
    {
      "inputs": [],
      "name": "stopContract",
      "outputs": [],
      "stateMutability": "nonpayable",
      "type": "function"
    },
    {
      "inputs": [],
      "name": "resumeContract",
      "outputs": [],
      "stateMutability": "nonpayable",
      "type": "function"
    },
    {
      "inputs": [
        {
          "internalType": "string",
          "name": "sha_256",
          "type": "string"
        },
        {
          "internalType": "string",
          "name": "md5",
          "type": "string"
        },
        {
          "internalType": "string",
          "name": "flagged_malicious",
          "type": "string"
        },
        {
          "internalType": "string",
          "name": "file_type",
          "type": "string"
        },
        {
          "internalType": "uint64",
          "name": "size",
          "type": "uint64"
        },
        {
          "internalType": "string",
          "name": "last_analysis",
          "type": "string"
        }
      ],
      "name": "storeAnalysis",
      "outputs": [],
      "stateMutability": "nonpayable",
      "type": "function"
    },
    {
      "inputs": [
        {
          "internalType": "string",
          "name": "sha_256",
          "type": "string"
        }
      ],
      "name": "retrieveAnalysis",
      "outputs": [
        {
          "internalType": "string",
          "name": "",
          "type": "string"
        },
        {
          "internalType": "string",
          "name": "",
          "type": "string"
        },
        {
          "internalType": "string",
          "name": "",
          "type": "string"
        },
        {
          "internalType": "uint64",
          "name": "",
          "type": "uint64"
        },
        {
          "internalType": "string",
          "name": "",
          "type": "string"
        }
      ],
      "stateMutability": "view",
      "type": "function",
      "constant": true
    },
    {
      "inputs": [
        {
          "internalType": "address",
          "name": "newOwner",
          "type": "address"
        }
      ],
      "name": "transferOwnership",
      "outputs": [],
      "stateMutability": "nonpayable",
      "type": "function"
    },
    {
      "inputs": [
        {
          "internalType": "string",
          "name": "sha_256",
          "type": "string"
        },
        {
          "internalType": "string",
          "name": "md5",
          "type": "string"
        },
        {
          "internalType": "string",
          "name": "flagged_malicious",
          "type": "string"
        },
        {
          "internalType": "string",
          "name": "file_type",
          "type": "string"
        },
        {
          "internalType": "uint64",
          "name": "size",
          "type": "uint64"
        },
        {
          "internalType": "string",
          "name": "last_analysis",
          "type": "string"
        }
      ],
      "name": "storeAnalysisOwner",
      "outputs": [],
      "stateMutability": "nonpayable",
      "type": "function"
    },
    {
      "inputs": [
        {
          "internalType": "string",
          "name": "sha_256",
          "type": "string"
        }
      ],
      "name": "retrieveAnalysisOwner",
      "outputs": [
        {
          "internalType": "string",
          "name": "",
          "type": "string"
        },
        {
          "internalType": "string",
          "name": "",
          "type": "string"
        },
        {
          "internalType": "string",
          "name": "",
          "type": "string"
        },
        {
          "internalType": "uint64",
          "name": "",
          "type": "uint64"
        },
        {
          "internalType": "string",
          "name": "",
          "type": "string"
        }
      ],
      "stateMutability": "view",
      "type": "function",
      "constant": true
    }
  ],
  "bytecode": "0x608060405260008060006101000a81548160ff02191690831515021790555034801561002a57600080fd5b5033600260006101000a81548173ffffffffffffffffffffffffffffffffffffffff021916908373ffffffffffffffffffffffffffffffffffffffff160217905550611a9d8061007b6000396000f3fe608060405234801561001057600080fd5b506004361061007d5760003560e01c806346194b1f1161005b57806346194b1f146100dc578063c4bc5da514610110578063d71fccbf1461011a578063f2fde38b146101365761007d565b806312253a6c1461008257806332f792671461008c5780633d80f40a146100a8575b600080fd5b61008a610152565b005b6100a660048036038101906100a191906110d2565b6101fe565b005b6100c260048036038101906100bd9190611203565b610486565b6040516100d39594939291906112ef565b60405180910390f35b6100f660048036038101906100f19190611203565b6107b4565b6040516101079594939291906112ef565b60405180910390f35b610118610b24565b005b610134600480360381019061012f91906110d2565b610bd0565b005b610150600480360381019061014b91906113bc565b610ee0565b005b600260009054906101000a900473ffffffffffffffffffffffffffffffffffffffff1673ffffffffffffffffffffffffffffffffffffffff163373ffffffffffffffffffffffffffffffffffffffff16146101e2576040517f08c379a00000000000000000000000000000000000000000000000000000000081526004016101d99061145b565b60405180910390fd5b60016000806101000a81548160ff021916908315150217905550565b600260009054906101000a900473ffffffffffffffffffffffffffffffffffffffff1673ffffffffffffffffffffffffffffffffffffffff163373ffffffffffffffffffffffffffffffffffffffff161461028e576040517f08c379a00000000000000000000000000000000000000000000000000000000081526004016102859061145b565b60405180910390fd5b6040518060a001604052808a8a8080601f016020809104026020016040519081016040528093929190818152602001838380828437600081840152601f19601f82011690508083019250505050505050815260200188888080601f016020809104026020016040519081016040528093929190818152602001838380828437600081840152601f19601f82011690508083019250505050505050815260200186868080601f016020809104026020016040519081016040528093929190818152602001838380828437600081840152601f19601f8201169050808301925050505050505081526020018467ffffffffffffffff16815260200183838080601f016020809104026020016040519081016040528093929190818152602001838380828437600081840152601f19601f8201169050808301925050505050505081525060018c8c6040516103e19291906114ba565b908152602001604051809103902060008201518160000190816104049190611718565b50602082015181600101908161041a9190611718565b5060408201518160020190816104309190611718565b5060608201518160030160006101000a81548167ffffffffffffffff021916908367ffffffffffffffff16021790555060808201518160040190816104759190611718565b509050505050505050505050505050565b60608060606000606060008054906101000a900460ff16156104dd576040517f08c379a00000000000000000000000000000000000000000000000000000000081526004016104d49061185c565b60405180910390fd5b6000600188886040516104f19291906114ba565b90815260200160405180910390206040518060a001604052908160008201805461051a90611531565b80601f016020809104026020016040519081016040528092919081815260200182805461054690611531565b80156105935780601f1061056857610100808354040283529160200191610593565b820191906000526020600020905b81548152906001019060200180831161057657829003601f168201915b505050505081526020016001820180546105ac90611531565b80601f01602080910402602001604051908101604052809291908181526020018280546105d890611531565b80156106255780601f106105fa57610100808354040283529160200191610625565b820191906000526020600020905b81548152906001019060200180831161060857829003601f168201915b5050505050815260200160028201805461063e90611531565b80601f016020809104026020016040519081016040528092919081815260200182805461066a90611531565b80156106b75780601f1061068c576101008083540402835291602001916106b7565b820191906000526020600020905b81548152906001019060200180831161069a57829003601f168201915b505050505081526020016003820160009054906101000a900467ffffffffffffffff1667ffffffffffffffff1667ffffffffffffffff16815260200160048201805461070290611531565b80601f016020809104026020016040519081016040528092919081815260200182805461072e90611531565b801561077b5780601f106107505761010080835404028352916020019161077b565b820191906000526020600020905b81548152906001019060200180831161075e57829003601f168201915b50505050508152505090508060000151816020015182604001518360600151846080015195509550955095509550509295509295909350565b606080606060006060600260009054906101000a900473ffffffffffffffffffffffffffffffffffffffff1673ffffffffffffffffffffffffffffffffffffffff163373ffffffffffffffffffffffffffffffffffffffff161461084d576040517f08c379a00000000000000000000000000000000000000000000000000000000081526004016108449061145b565b60405180910390fd5b6000600188886040516108619291906114ba565b90815260200160405180910390206040518060a001604052908160008201805461088a90611531565b80601f01602080910402602001604051908101604052809291908181526020018280546108b690611531565b80156109035780601f106108d857610100808354040283529160200191610903565b820191906000526020600020905b8154815290600101906020018083116108e657829003601f168201915b5050505050815260200160018201805461091c90611531565b80601f016020809104026020016040519081016040528092919081815260200182805461094890611531565b80156109955780601f1061096a57610100808354040283529160200191610995565b820191906000526020600020905b81548152906001019060200180831161097857829003601f168201915b505050505081526020016002820180546109ae90611531565b80601f01602080910402602001604051908101604052809291908181526020018280546109da90611531565b8015610a275780601f106109fc57610100808354040283529160200191610a27565b820191906000526020600020905b815481529060010190602001808311610a0a57829003601f168201915b505050505081526020016003820160009054906101000a900467ffffffffffffffff1667ffffffffffffffff1667ffffffffffffffff168152602001600482018054610a7290611531565b80601f0160208091040260200160405190810160405280929190818152602001828054610a9e90611531565b8015610aeb5780601f10610ac057610100808354040283529160200191610aeb565b820191906000526020600020905b815481529060010190602001808311610ace57829003601f168201915b50505050508152505090508060000151816020015182604001518360600151846080015195509550955095509550509295509295909350565b600260009054906101000a900473ffffffffffffffffffffffffffffffffffffffff1673ffffffffffffffffffffffffffffffffffffffff163373ffffffffffffffffffffffffffffffffffffffff1614610bb4576040517f08c379a0000000000000000000000000000000000000000000000000000000008152600401610bab9061145b565b60405180910390fd5b60008060006101000a81548160ff021916908315150217905550565b60008054906101000a900460ff1615610c1e576040517f08c379a0000000000000000000000000000000000000000000000000000000008152600401610c159061185c565b60405180910390fd5b600060018c8c604051610c329291906114ba565b908152602001604051809103902090506000816000018054610c5390611531565b905003610e4a576040518060a001604052808b8b8080601f016020809104026020016040519081016040528093929190818152602001838380828437600081840152601f19601f82011690508083019250505050505050815260200189898080601f016020809104026020016040519081016040528093929190818152602001838380828437600081840152601f19601f82011690508083019250505050505050815260200187878080601f016020809104026020016040519081016040528093929190818152602001838380828437600081840152601f19601f8201169050808301925050505050505081526020018567ffffffffffffffff16815260200184848080601f016020809104026020016040519081016040528093929190818152602001838380828437600081840152601f19601f8201169050808301925050505050505081525060018d8d604051610dad9291906114ba565b90815260200160405180910390206000820151816000019081610dd09190611718565b506020820151816001019081610de69190611718565b506040820151816002019081610dfc9190611718565b5060608201518160030160006101000a81548167ffffffffffffffff021916908367ffffffffffffffff1602179055506080820151816004019081610e419190611718565b50905050610e73565b8787826001019182610e5d929190611887565b508282826004019182610e71929190611887565b505b8b8b604051610e839291906114ba565b60405180910390207fb339ba0969215c9b8b888d2ab684b81086a61bec20fa27ac1eb36c5b82d74cbc8b8b8b8b8b8b8b8b8b604051610eca99989796959493929190611984565b60405180910390a2505050505050505050505050565b600260009054906101000a900473ffffffffffffffffffffffffffffffffffffffff1673ffffffffffffffffffffffffffffffffffffffff163373ffffffffffffffffffffffffffffffffffffffff1614610f70576040517f08c379a0000000000000000000000000000000000000000000000000000000008152600401610f679061145b565b60405180910390fd5b600073ffffffffffffffffffffffffffffffffffffffff168173ffffffffffffffffffffffffffffffffffffffff1603610fdf576040517f08c379a0000000000000000000000000000000000000000000000000000000008152600401610fd690611a47565b60405180910390fd5b80600260006101000a81548173ffffffffffffffffffffffffffffffffffffffff021916908373ffffffffffffffffffffffffffffffffffffffff16021790555050565b600080fd5b600080fd5b600080fd5b600080fd5b600080fd5b60008083601f8401126110525761105161102d565b5b8235905067ffffffffffffffff81111561106f5761106e611032565b5b60208301915083600182028301111561108b5761108a611037565b5b9250929050565b600067ffffffffffffffff82169050919050565b6110af81611092565b81146110ba57600080fd5b50565b6000813590506110cc816110a6565b92915050565b600080600080600080600080600080600060c08c8e0312156110f7576110f6611023565b5b60008c013567ffffffffffffffff81111561111557611114611028565b5b6111218e828f0161103c565b9b509b505060208c013567ffffffffffffffff81111561114457611143611028565b5b6111508e828f0161103c565b995099505060408c013567ffffffffffffffff81111561117357611172611028565b5b61117f8e828f0161103c565b975097505060608c013567ffffffffffffffff8111156111a2576111a1611028565b5b6111ae8e828f0161103c565b955095505060806111c18e828f016110bd565b93505060a08c013567ffffffffffffffff8111156111e2576111e1611028565b5b6111ee8e828f0161103c565b92509250509295989b509295989b9093969950565b6000806020838503121561121a57611219611023565b5b600083013567ffffffffffffffff81111561123857611237611028565b5b6112448582860161103c565b92509250509250929050565b600081519050919050565b600082825260208201905092915050565b60005b8381101561128a57808201518184015260208101905061126f565b60008484015250505050565b6000601f19601f8301169050919050565b60006112b282611250565b6112bc818561125b565b93506112cc81856020860161126c565b6112d581611296565b840191505092915050565b6112e981611092565b82525050565b600060a082019050818103600083015261130981886112a7565b9050818103602083015261131d81876112a7565b9050818103604083015261133181866112a7565b905061134060608301856112e0565b818103608083015261135281846112a7565b90509695505050505050565b600073ffffffffffffffffffffffffffffffffffffffff82169050919050565b60006113898261135e565b9050919050565b6113998161137e565b81146113a457600080fd5b50565b6000813590506113b681611390565b92915050565b6000602082840312156113d2576113d1611023565b5b60006113e0848285016113a7565b91505092915050565b7f4f6e6c7920636f6e7472616374206f776e65722063616e2063616c6c2074686960008201527f732066756e6374696f6e00000000000000000000000000000000000000000000602082015250565b6000611445602a8361125b565b9150611450826113e9565b604082019050919050565b6000602082019050818103600083015261147481611438565b9050919050565b600081905092915050565b82818337600083830152505050565b60006114a1838561147b565b93506114ae838584611486565b82840190509392505050565b60006114c7828486611495565b91508190509392505050565b7f4e487b7100000000000000000000000000000000000000000000000000000000600052604160045260246000fd5b7f4e487b7100000000000000000000000000000000000000000000000000000000600052602260045260246000fd5b6000600282049050600182168061154957607f821691505b60208210810361155c5761155b611502565b5b50919050565b60008190508160005260206000209050919050565b60006020601f8301049050919050565b600082821b905092915050565b6000600883026115c47fffffffffffffffffffffffffffffffffffffffffffffffffffffffffffffffff82611587565b6115ce8683611587565b95508019841693508086168417925050509392505050565b6000819050919050565b6000819050919050565b600061161561161061160b846115e6565b6115f0565b6115e6565b9050919050565b6000819050919050565b61162f836115fa565b61164361163b8261161c565b848454611594565b825550505050565b600090565b61165861164b565b611663818484611626565b505050565b5b818110156116875761167c600082611650565b600181019050611669565b5050565b601f8211156116cc5761169d81611562565b6116a684611577565b810160208510156116b5578190505b6116c96116c185611577565b830182611668565b50505b505050565b600082821c905092915050565b60006116ef600019846008026116d1565b1980831691505092915050565b600061170883836116de565b9150826002028217905092915050565b61172182611250565b67ffffffffffffffff81111561173a576117396114d3565b5b6117448254611531565b61174f82828561168b565b600060209050601f8311600181146117825760008415611770578287015190505b61177a85826116fc565b8655506117e2565b601f19841661179086611562565b60005b828110156117b857848901518255600182019150602085019450602081019050611793565b868310156117d557848901516117d1601f8916826116de565b8355505b6001600288020188555050505b505050505050565b7f54686520436f6e747261637420697320756e64657220656d657267656e63792060008201527f73746f702e000000000000000000000000000000000000000000000000000000602082015250565b600061184660258361125b565b9150611851826117ea565b604082019050919050565b6000602082019050818103600083015261187581611839565b9050919050565b600082905092915050565b611891838361187c565b67ffffffffffffffff8111156118aa576118a96114d3565b5b6118b48254611531565b6118bf82828561168b565b6000601f8311600181146118ee57600084156118dc578287013590505b6118e685826116fc565b86555061194e565b601f1984166118fc86611562565b60005b82811015611924578489013582556001820191506020850194506020810190506118ff565b86831015611941578489013561193d601f8916826116de565b8355505b6001600288020188555050505b50505050505050565b6000611963838561125b565b9350611970838584611486565b61197983611296565b840190509392505050565b600060a082019050818103600083015261199f818b8d611957565b905081810360208301526119b481898b611957565b905081810360408301526119c9818789611957565b90506119d860608301866112e0565b81810360808301526119eb818486611957565b90509a9950505050505050505050565b7f496e76616c6964206e6577206f776e6572206164647265737300000000000000600082015250565b6000611a3160198361125b565b9150611a3c826119fb565b602082019050919050565b60006020820190508181036000830152611a6081611a24565b905091905056fea2646970667358221220c925e8ad96fb0ad5425e74be1bdc0ec1e9d1cdbcf73bc79d78c2471086e37c7564736f6c63430008130033",
  "immutableReferences": {},
  "source": "// SPDX-License-Identifier: GPL-3.0\npragma solidity ^0.8.19;\n\ncontract Dtsp {\n\n    // Structure to store analysis information\n    struct Analysis {\n        string md5;                \n        string flagged_malicious;   \n        string file_type;           \n        uint64 size;                \n        string last_analysis;       \n    }\n\n    // State variable to track the emergency stop status of the contract\n    bool private isStopped = false;\n\n    // Mapping to store analyses using the SHA-256 hash as the key\n    mapping(string => Analysis) private analysis_map;\n    \n    // Variable to store the owner's address\n    address private owner;\n\n    // Event emitted when an analysis is stored\n    event AnalysisStored(string indexed sha_256, string md5, string flagged_malicious, string file_type, uint64 size, string last_analysis);\n\n    // Constructor to set the contract owner\n    constructor() {\n        owner = msg.sender; \n    }\n\n    // Modifier to restrict function access to the contract owner\n    modifier onlyOwner() {\n        require(msg.sender == owner, \"Only contract owner can call this function\");\n        _;\n    }\n\n    // Modifier to check if the contract is stopped in an emergency\n    modifier stoppedInEmergency(){\n        require(!isStopped, \"The Contract is under emergency stop.\");\n        _;\n    }\n\n    // Function to stop the contract in an emergency\n    function stopContract() public onlyOwner{\n        isStopped = true;\n    }\n\n    // Function to resume the contract from an emergency stop\n    function resumeContract() public onlyOwner{\n        isStopped = false;\n    }\n\n    // Function to store an analysis\n    function storeAnalysis(string calldata sha_256, string calldata md5, string calldata flagged_malicious, string calldata file_type, uint64 size, string calldata last_analysis) public stoppedInEmergency{\n        Analysis storage analysis = analysis_map[sha_256];\n        \n        // If the analysis does not exist, create a new entry\n        if (bytes(analysis.md5).length == 0) {\n            analysis_map[sha_256] = Analysis(md5, flagged_malicious, file_type, size, last_analysis);\n        } else {\n            // If the analysis exists, update the relevant fields\n            analysis.flagged_malicious = flagged_malicious;\n            analysis.last_analysis = last_analysis;\n        }\n\n        // Emit an event after storing the analysis\n        emit AnalysisStored(sha_256, md5, flagged_malicious, file_type, size, last_analysis);\n    }\n\n    // Function to retrieve an analysis\n    function retrieveAnalysis(string calldata sha_256) public stoppedInEmergency view returns (string memory, string memory, string memory, uint64, string memory) {\n        Analysis memory analysis = analysis_map[sha_256];\n        return (analysis.md5, analysis.flagged_malicious, analysis.file_type, analysis.size, analysis.last_analysis);\n    }\n\n    // Function to transfer ownership of the contract\n    function transferOwnership(address newOwner) public onlyOwner {\n        require(newOwner != address(0), \"Invalid new owner address\");\n        owner = newOwner;\n    }\n\n    // Function to store an analysis by the owner without emergency stop checks\n    function storeAnalysisOwner(string calldata sha_256, string calldata md5, string calldata flagged_malicious, string calldata file_type, uint64 size, string calldata last_analysis) public onlyOwner {\n        analysis_map[sha_256] = Analysis(md5, flagged_malicious, file_type, size, last_analysis);\n    }\n\n    // Function to retrieve an analysis by the owner without emergency stop checks\n    function retrieveAnalysisOwner(string calldata sha_256) public onlyOwner view returns (string memory, string memory, string memory, uint64, string memory) {\n        Analysis memory analysis = analysis_map[sha_256];\n        return (analysis.md5, analysis.flagged_malicious, analysis.file_type, analysis.size, analysis.last_analysis);\n    }\n}\n",
  "sourcePath": "/home/carlo/Desktop/DTSP_SmartContract/contracts/dtsp.sol",
  "compiler": {
    "name": "solc",
    "version": "0.8.19+commit.7dd6d404.Emscripten.clang"
  },
  "schemaVersion": "3.4.16",
  "updatedAt": "2024-07-07T13:48:00.258Z",
  "networkType": "ethereum",
  "devdoc": {
    "kind": "dev",
    "methods": {},
    "version": 1
  },
  "userdoc": {
    "kind": "user",
    "methods": {},
    "version": 1
  }
}